:100000000C9462000C948A000C948A000C948A0070
:100010000C948A000C948A000C948A000C948A0038
:100020000C948A000C948A000C948A000C948A0028
:100030000C948A000C948A000C948A000C948A0018
:100040000C94D3020C948A000C94A1020C947B02B1
:100050000C948A000C948A000C948A000C948A00F8
:100060000C948A000C948A000000000023002600F3
:10007000290000000008000201000003040700003E
:1000800000000000000000000000250028002B00F8
:1000900000000000240027002A00040404040404D3
:1000A0000404020202020202030303030303010227
:1000B00004081020408001020408102001020408F6
:1000C00010204B0311241FBECFEFD8E0DEBFCDBF01
:1000D00011E0A0E0B1E0E0E9F8E002C005900D9287
:1000E000AE33B107D9F721E0AEE3B1E001C01D9214
:1000F000AA3EB207E1F710E0C2E6D0E004C02197C3
:10010000FE010E944004C136D107C9F70E94910345
:100110000C9446040C940000CF93DF9390E0FC0114
:10012000E255FF4F249186569F4FFC01849188230E
:10013000C1F090E0880F991FFC01E057FF4FC59177
:10014000D491FC01EA57FF4FA591B4919FB7F89461
:100150008881E22FE0958E2388838C91E823EC93AD
:100160009FBFDF91CF910895AF92BF92CF92DF9260
:10017000EF92FF920F931F93CF93DF936C017B015C
:100180008B01040F151FEB015E01AE18BF08C017ED
:10019000D10759F06991D601ED91FC910190F08160
:1001A000E02DC6010995892B79F7C501DF91CF9123
:1001B0001F910F91FF90EF90DF90CF90BF90AF9085
:1001C0000895FC01538D448D252F30E0842F90E05D
:1001D000821B930B541710F0CF9608950197089542
:1001E000FC01918D828D981761F0A28DAE0FBF2F0B
:1001F000B11D5D968C91928D9F5F9F73928F90E061
:1002000008958FEF9FEF0895FC01918D828D9817CF
:1002100031F0828DE80FF11D858D90E008958FEF0C
:100220009FEF0895FC01918D228D892F90E0805CD5
:100230009F4F821B91098F739927089587E491E05E
:100240000E94120121E0892B09F420E0822F0895F9
:1002500080E090E0892B29F00E941E0181110C940E
:1002600000000895FC01A48DA80FB92FB11DA35A59
:10027000BF4F2C91848D90E001968F739927848FC6
:10028000A689B7892C93A089B1898C9183708064E9
:100290008C93938D848D981306C00288F389E02D8A
:1002A00080818F7D80830895EF92FF920F931F933B
:1002B000CF93DF93EC0181E0888F9B8D8C8D981319
:1002C0001AC0E889F989808185FF15C09FB7F89425
:1002D000EE89FF896083E889F98980818370806471
:1002E00080839FBF81E090E0DF91CF911F910F91BC
:1002F000FF90EF900895F62E0B8D10E00F5F1F4FCB
:100300000F731127E02E8C8D8E110CC00FB607FCD9
:10031000FACFE889F989808185FFF5CFCE010E9467
:100320003201F1CFEB8DEC0FFD2FF11DE35AFF4FA2
:10033000F0829FB7F8940B8FEA89FB8980818062F5
:10034000CFCFCF93DF93EC01888D8823B9F0AA89B2
:10035000BB89E889F9898C9185FD03C0808186FD80
:100360000DC00FB607FCF7CF8C9185FFF2CF8081CF
:1003700085FFEDCFCE010E943201E9CFDF91CF9111
:100380000895833081F028F4813099F08230A9F00B
:1003900008958730A9F08830C9F08430B1F4809195
:1003A00080008F7D03C0809180008F7780938000D4
:1003B000089584B58F7784BD089584B58F7DFBCF74
:1003C0008091B0008F778093B00008958091B00045
:1003D0008F7DF9CFCF93DF93282F30E0F901EE58CE
:1003E000FF4F8491F901E255FF4FD491F901E65690
:1003F000FF4FC491CC23A1F081110E94C101EC2FC9
:10040000F0E0EE0FFF1FE859FF4FA591B491EC917A
:10041000ED2381E090E009F480E0DF91CF91089531
:1004200080E090E0FACF3FB7F8948091430190913B
:100430004401A0914501B091460126B5A89B05C095
:100440002F3F19F00196A11DB11D3FBFBA2FA92F53
:10045000982F8827BC01CD01620F711D811D911D50
:1004600042E0660F771F881F991F4A95D1F70895BC
:100470008F929F92AF92BF92CF92DF92EF92FF92B4
:100480000E9413024B015C0180EDC82E87E0D82E3C
:10049000E12CF12C0E941302681979098A099B0941
:1004A000683E734081059105A8F321E0C21AD10886
:1004B000E108F10888EE880E83E0981EA11CB11CAB
:1004C000C114D104E104F10429F7FF90EF90DF900B
:1004D000CF90BF90AF909F908F900895FC010190B6
:1004E0000020E9F73197AF01481B590BBC0187E4A5
:1004F00091E00C94B4001F920F920FB60F9211244A
:100500002F933F934F935F936F937F938F939F931B
:10051000AF93BF93EF93FF9387E491E00E94320182
:10052000FF91EF91BF91AF919F918F917F916F91CB
:100530005F914F913F912F910F900FBE0F901F90A1
:1005400018951F920F920FB60F9211242F938F932D
:100550009F93EF93FF93E0915701F09158018081B1
:10056000E0915D01F0915E0182FD1BC09081809160
:1005700060018F5F8F7320916101821741F0E091DC
:100580006001F0E0E95BFE4F958F80936001FF9181
:10059000EF919F918F912F910F900FBE0F901F9011
:1005A00018958081F4CF1F920F920FB60F921124ED
:1005B0002F933F938F939F93AF93BF9380913F016E
:1005C00090914001A0914101B091420130913E01D2
:1005D00023E0230F2D3758F50196A11DB11D20935F
:1005E0003E0180933F0190934001A0934101B0935D
:1005F00042018091430190914401A0914501B09145
:1006000046010196A11DB11D8093430190934401C1
:10061000A0934501B0934601BF91AF919F918F91F7
:100620003F912F910F900FBE0F901F90189526E8C5
:10063000230F0296A11DB11DD2CF1F93CF93DF933D
:10064000282F30E0F901EE58FF4F8491F901E2556F
:10065000FF4FD491F901E656FF4FC491CC23A9F086
:10066000162F81110E94C101EC2FF0E0EE0FFF1F49
:10067000EA57FF4FA591B4918FB7F894EC911111FF
:1006800008C0D095DE23DC938FBFDF91CF911F91FF
:100690000895DE2BF8CFCF93DF93E7E4F1E01382E8
:1006A000128288EE93E0A0E0B0E084839583A68375
:1006B000B78384E091E09183808385EC90E0958717
:1006C000848784EC90E09787868780EC90E0918B1C
:1006D000808B81EC90E0938B828B82EC90E0958B09
:1006E000848B86EC90E0978B868B118E128E138E06
:1006F000148EC7EED1E084E0888319820E948C00BA
:1007000061E088810E941D03C4EED1E085E088830A
:1007100019820E948C0061E08881DF91CF910C9456
:100720001D03789484B5826084BD84B5816084BDE6
:1007300085B5826085BD85B5816085BD80916E007F
:10074000816080936E0010928100809181008260B0
:1007500080938100809181008160809381008091ED
:1007600080008160809380008091B10084608093DC
:10077000B1008091B00081608093B00080917A00D8
:10078000846080937A0080917A00826080937A00FE
:1007900080917A00816080937A0080917A008068ED
:1007A00080937A001092C100E0915701F0915801B6
:1007B00082E08083E0915301F09154011082E09136
:1007C0005501F091560180E1808310925F01E09124
:1007D0005B01F0915C0186E08083E0915901F0912A
:1007E0005A01808180618083E0915901F0915A0122
:1007F000808188608083E0915901F0915A01808165
:1008000080688083E0915901F0915A0180818F7D49
:100810008083C0E0D0E08091E7010E94EA0121E0FE
:10082000009709F420E02093E901892B51F082E13F
:1008300091E00E946E0286E291E00E946E020E94A8
:1008400038028091E4010E94EA0121E0009709F456
:1008500020E02093E601892B51F089E291E00E948B
:100860006E0286E291E00E946E020E94380220979A
:1008700091F20E941E01882371F20E940000CBCFEA
:10088000EE0FFF1F0590F491E02D0994F894FFCF2F
:10089000000000005401B400E100A1011201F000C9
:1008A00004012D2D464443204F5556524520616387
:1008B0007469662D2D000D0A002D2D4644432046F7
:0E08C00045524D452061637469662D2D000080
:00000001FF
